{
  "contractName": "MultiprizerOraclize",
  "abi": [
    {
      "constant": true,
      "inputs": [],
      "name": "timekeeper",
      "outputs": [
        {
          "name": "",
          "type": "address"
        }
      ],
      "payable": false,
      "stateMutability": "view",
      "type": "function",
      "signature": "0x1aa08230"
    },
    {
      "constant": true,
      "inputs": [],
      "name": "multiprizerAddress",
      "outputs": [
        {
          "name": "",
          "type": "address"
        }
      ],
      "payable": false,
      "stateMutability": "view",
      "type": "function",
      "signature": "0x3da2722b"
    },
    {
      "constant": true,
      "inputs": [],
      "name": "isTimekeeper",
      "outputs": [
        {
          "name": "",
          "type": "bool"
        }
      ],
      "payable": false,
      "stateMutability": "view",
      "type": "function",
      "signature": "0x7330ef5a"
    },
    {
      "constant": true,
      "inputs": [],
      "name": "owner",
      "outputs": [
        {
          "name": "",
          "type": "address"
        }
      ],
      "payable": false,
      "stateMutability": "view",
      "type": "function",
      "signature": "0x8da5cb5b"
    },
    {
      "constant": true,
      "inputs": [],
      "name": "isOwner",
      "outputs": [
        {
          "name": "",
          "type": "bool"
        }
      ],
      "payable": false,
      "stateMutability": "view",
      "type": "function",
      "signature": "0x8f32d59b"
    },
    {
      "constant": false,
      "inputs": [
        {
          "name": "newTimeKeeper",
          "type": "address"
        }
      ],
      "name": "transferTimekeeping",
      "outputs": [],
      "payable": false,
      "stateMutability": "nonpayable",
      "type": "function",
      "signature": "0x9b64a72b"
    },
    {
      "constant": false,
      "inputs": [
        {
          "name": "newOwner",
          "type": "address"
        }
      ],
      "name": "transferOwnership",
      "outputs": [],
      "payable": false,
      "stateMutability": "nonpayable",
      "type": "function",
      "signature": "0xf2fde38b"
    },
    {
      "constant": true,
      "inputs": [],
      "name": "priceOraclize",
      "outputs": [
        {
          "name": "",
          "type": "uint256"
        }
      ],
      "payable": false,
      "stateMutability": "view",
      "type": "function",
      "signature": "0xfcb60721"
    },
    {
      "inputs": [
        {
          "name": "_contractAddress",
          "type": "address"
        }
      ],
      "payable": false,
      "stateMutability": "nonpayable",
      "type": "constructor",
      "signature": "constructor"
    },
    {
      "payable": true,
      "stateMutability": "payable",
      "type": "fallback"
    },
    {
      "anonymous": false,
      "inputs": [
        {
          "indexed": false,
          "name": "_oraclizeID",
          "type": "bytes32"
        },
        {
          "indexed": false,
          "name": "_isProofValid",
          "type": "bool"
        },
        {
          "indexed": false,
          "name": "_oraclizeProof",
          "type": "bytes"
        },
        {
          "indexed": false,
          "name": "_result",
          "type": "bytes"
        }
      ],
      "name": "OraclizeValues",
      "type": "event",
      "signature": "0x734b235ea1bf2a0059e310a2900fcf6b8408ea739f2f4ef2d4385dad011b834a"
    },
    {
      "anonymous": false,
      "inputs": [
        {
          "indexed": true,
          "name": "previousOwner",
          "type": "address"
        },
        {
          "indexed": true,
          "name": "newOwner",
          "type": "address"
        }
      ],
      "name": "OwnershipTransferred",
      "type": "event",
      "signature": "0x8be0079c531659141344cd1fd0a4f28419497f9722a3daafe3b4186f6b6457e0"
    },
    {
      "anonymous": false,
      "inputs": [
        {
          "indexed": true,
          "name": "previousTimekeeper",
          "type": "address"
        },
        {
          "indexed": true,
          "name": "newTimekeeper",
          "type": "address"
        }
      ],
      "name": "TimekeepingTransferred",
      "type": "event",
      "signature": "0x1826d636e9a3774aec2775a096272892a3d9be1cdf17c925625adcdc61e59a9a"
    },
    {
      "constant": false,
      "inputs": [
        {
          "name": "_contractAddress",
          "type": "address"
        }
      ],
      "name": "setContractAddrByAdmin",
      "outputs": [],
      "payable": false,
      "stateMutability": "nonpayable",
      "type": "function",
      "signature": "0x8d3246fc"
    },
    {
      "constant": false,
      "inputs": [
        {
          "name": "_gasLimitOraclize",
          "type": "uint256"
        },
        {
          "name": "_gasPriceOraclize",
          "type": "uint256"
        },
        {
          "name": "_numBytesOraclize",
          "type": "uint256"
        },
        {
          "name": "_delayOraclize",
          "type": "uint256"
        }
      ],
      "name": "updateOraclizePropsByAdmin",
      "outputs": [],
      "payable": false,
      "stateMutability": "nonpayable",
      "type": "function",
      "signature": "0x64acf644"
    },
    {
      "constant": true,
      "inputs": [],
      "name": "getOraclizePropsByAdmin",
      "outputs": [
        {
          "name": "_gasLimitOraclize",
          "type": "uint256"
        },
        {
          "name": "_gasPriceOraclize",
          "type": "uint256"
        },
        {
          "name": "_numBytesOraclize",
          "type": "uint256"
        },
        {
          "name": "_delayOraclize",
          "type": "uint256"
        },
        {
          "name": "_priceOraclize",
          "type": "uint256"
        }
      ],
      "payable": false,
      "stateMutability": "view",
      "type": "function",
      "signature": "0xd23bf33a"
    },
    {
      "constant": false,
      "inputs": [],
      "name": "newRandomDSQuery",
      "outputs": [
        {
          "name": "_queryId",
          "type": "bytes32"
        }
      ],
      "payable": true,
      "stateMutability": "payable",
      "type": "function",
      "signature": "0xc68353c4"
    },
    {
      "constant": false,
      "inputs": [
        {
          "name": "_myid",
          "type": "bytes32"
        },
        {
          "name": "_result",
          "type": "string"
        }
      ],
      "name": "__callback",
      "outputs": [],
      "payable": false,
      "stateMutability": "nonpayable",
      "type": "function",
      "signature": "0x27dc297e"
    },
    {
      "constant": false,
      "inputs": [
        {
          "name": "_oraclizeID",
          "type": "bytes32"
        },
        {
          "name": "_result",
          "type": "string"
        },
        {
          "name": "_oraclizeProof",
          "type": "bytes"
        }
      ],
      "name": "__callback",
      "outputs": [],
      "payable": false,
      "stateMutability": "nonpayable",
      "type": "function",
      "signature": "0x38bbfa50"
    },
    {
      "constant": false,
      "inputs": [
        {
          "name": "_toAddress",
          "type": "address"
        },
        {
          "name": "_amount",
          "type": "uint256"
        }
      ],
      "name": "safeSend",
      "outputs": [],
      "payable": false,
      "stateMutability": "nonpayable",
      "type": "function",
      "signature": "0x07ad9ecb"
    },
    {
      "constant": false,
      "inputs": [],
      "name": "ownerKill",
      "outputs": [],
      "payable": false,
      "stateMutability": "nonpayable",
      "type": "function",
      "signature": "0x8d702122"
    }
  ],
  "bytecode": "0x60806040523480156200001157600080fd5b5060405160208062003d20833981018060405260208110156200003357600080fd5b505160008054600160a060020a0319163317808255604051600160a060020a039190911691907f8be0079c531659141344cd1fd0a4f28419497f9722a3daafe3b4186f6b6457e0908290a360088054600160a060020a03808416600160a060020a03199283161792839055600780549092169216919091179055620000e17f3000000000000000000000000000000000000000000000000000000000000000640100000000620000e8810204565b50620007d2565b600354600160a060020a031615806200011e57506003546200011c90600160a060020a03166401000000006200034b810204565b155b156200013b576200013960006401000000006200034f810204565b505b600360009054906101000a9004600160a060020a0316600160a060020a03166338cc48316040518163ffffffff167c0100000000000000000000000000000000000000000000000000000000028152600401602060405180830381600087803b158015620001a857600080fd5b505af1158015620001bd573d6000803e3d6000fd5b505050506040513d6020811015620001d457600080fd5b5051600254600160a060020a03908116911614620002a757600360009054906101000a9004600160a060020a0316600160a060020a03166338cc48316040518163ffffffff167c0100000000000000000000000000000000000000000000000000000000028152600401602060405180830381600087803b1580156200025957600080fd5b505af11580156200026e573d6000803e3d6000fd5b505050506040513d60208110156200028557600080fd5b505160028054600160a060020a031916600160a060020a039092169190911790555b600254604080517f688dcfd70000000000000000000000000000000000000000000000000000000081527fff00000000000000000000000000000000000000000000000000000000000000841660048201529051600160a060020a039092169163688dcfd79160248082019260009290919082900301818387803b1580156200032f57600080fd5b505af115801562000344573d6000803e3d6000fd5b5050505050565b3b90565b6000620003646401000000006200036a810204565b92915050565b60008062000395731d3b2638a7cc9f2cb3d298a3da7a90b67e5506ed6401000000006200034b810204565b1115620004135760038054600160a060020a031916731d3b2638a7cc9f2cb3d298a3da7a90b67e5506ed17905560408051808201909152600b81527f6574685f6d61696e6e657400000000000000000000000000000000000000000060208201526200040a9064010000000062000717810204565b50600162000714565b60006200043d73c03a2615d5efaf5f49f60b7bb6583eaec212fdf16401000000006200034b810204565b1115620004b25760038054600160a060020a03191673c03a2615d5efaf5f49f60b7bb6583eaec212fdf117905560408051808201909152600c81527f6574685f726f707374656e33000000000000000000000000000000000000000060208201526200040a9064010000000062000717810204565b6000620004dc73b7a07bcf2ba2f2703b24c0691b5278999c59ac7e6401000000006200034b810204565b1115620005515760038054600160a060020a03191673b7a07bcf2ba2f2703b24c0691b5278999c59ac7e17905560408051808201909152600981527f6574685f6b6f76616e000000000000000000000000000000000000000000000060208201526200040a9064010000000062000717810204565b60006200057b73146500cfd35b22e4a392fe0adc06de1a1368ed486401000000006200034b810204565b1115620005f05760038054600160a060020a03191673146500cfd35b22e4a392fe0adc06de1a1368ed4817905560408051808201909152600b81527f6574685f72696e6b65627900000000000000000000000000000000000000000060208201526200040a9064010000000062000717810204565b60006200061a736f485c8bf6fc43ea212e93bbf8ce046c7f1cb4756401000000006200034b810204565b111562000650575060038054600160a060020a031916736f485c8bf6fc43ea212e93bbf8ce046c7f1cb475179055600162000714565b60006200067a7320e12a1f859b3feae5fb2a0a32c18f5a65555bbf6401000000006200034b810204565b1115620006b0575060038054600160a060020a0319167320e12a1f859b3feae5fb2a0a32c18f5a65555bbf179055600162000714565b6000620006da7351efaf4c8b3c9afbd5ab9f4bbc82784ab6ef8faa6401000000006200034b810204565b111562000710575060038054600160a060020a0319167351efaf4c8b3c9afbd5ab9f4bbc82784ab6ef8faa179055600162000714565b5060005b90565b80516200072c90600490602084019062000730565b5050565b828054600181600116156101000203166002900490600052602060002090601f016020900481019282601f106200077357805160ff1916838001178555620007a3565b82800160010185558215620007a3579182015b82811115620007a357825182559160200191906001019062000786565b50620007b1929150620007b5565b5090565b6200071491905b80821115620007b15760008155600101620007bc565b61353e80620007e26000396000f3fe6080604052600436106100cc5763ffffffff60e060020a60003504166307ad9ecb81146100ce5780631aa082301461010757806327dc297e1461013857806338bbfa50146101f15780633da2722b1461033057806364acf644146103455780637330ef5a146103815780638d3246fc146103aa5780638d702122146103dd5780638da5cb5b146103f25780638f32d59b146104075780639b64a72b1461041c578063c68353c41461044f578063d23bf33a14610469578063f2fde38b146104b0578063fcb60721146104e3575b005b3480156100da57600080fd5b506100cc600480360360408110156100f157600080fd5b50600160a060020a0381351690602001356104f8565b34801561011357600080fd5b5061011c610632565b604051600160a060020a03909116815260200160405180910390f35b34801561014457600080fd5b506100cc6004803603604081101561015b57600080fd5b8135919081019060408101602082013564010000000081111561017d57600080fd5b82018360208201111561018f57600080fd5b803590602001918460018302840111640100000000831117156101b157600080fd5b91908080601f0160208091040260200160405190810160405281815292919060208401838380828437600092019190915250929550610642945050505050565b3480156101fd57600080fd5b506100cc6004803603606081101561021457600080fd5b8135919081019060408101602082013564010000000081111561023657600080fd5b82018360208201111561024857600080fd5b8035906020019184600183028401116401000000008311171561026a57600080fd5b91908080601f016020809104026020016040519081016040528181529291906020840183838082843760009201919091525092959493602081019350359150506401000000008111156102bc57600080fd5b8201836020820111156102ce57600080fd5b803590602001918460018302840111640100000000831117156102f057600080fd5b91908080601f016020809104026020016040519081016040528181529291906020840183838082843760009201919091525092955061067d945050505050565b34801561033c57600080fd5b5061011c610905565b34801561035157600080fd5b506100cc6004803603608081101561036857600080fd5b5080359060208101359060408101359060600135610914565b34801561038d57600080fd5b506103966109aa565b604051901515815260200160405180910390f35b3480156103b657600080fd5b506100cc600480360360208110156103cd57600080fd5b5035600160a060020a03166109bb565b3480156103e957600080fd5b506100cc610a0b565b3480156103fe57600080fd5b5061011c610a31565b34801561041357600080fd5b50610396610a40565b34801561042857600080fd5b506100cc6004803603602081101561043f57600080fd5b5035600160a060020a0316610a51565b610457610ae5565b60405190815260200160405180910390f35b34801561047557600080fd5b5061047e610b80565b604051808681526020018581526020018481526020018381526020018281526020019550505050505060405180910390f35b3480156104bc57600080fd5b506100cc600480360360208110156104d357600080fd5b5035600160a060020a0316610bc6565b3480156104ef57600080fd5b50610457610c4c565b610500610a40565b8061050e575061050e6109aa565b151561051957600080fd5b60008111610587576040517f08c379a000000000000000000000000000000000000000000000000000000000815260206004820152600860248201527f616d745f7a65726f000000000000000000000000000000000000000000000000604482015260640160405180910390fd5b30318111156105f6576040517f08c379a000000000000000000000000000000000000000000000000000000000815260206004820152600860248201527f6e6f5f66756e6473000000000000000000000000000000000000000000000000604482015260640160405180910390fd5b600160a060020a03821681156108fc0282604051600060405180830381858888f1935050505015801561062d573d6000803e3d6000fd5b505050565b600154600160a060020a03165b90565b61067982826000604051818152601f19601f8301168101602001604052908015610673576020820181803883390190505b5061067d565b5050565b610685610c52565b600160a060020a031633146106fa576040517f08c379a000000000000000000000000000000000000000000000000000000000815260206004820152600a60248201527f63616c6c65725f65727200000000000000000000000000000000000000000000604482015260640160405180910390fd5b6000610707848484610e24565b60075490915060ff82161590600160a060020a031663bec9f2f286868460405160e060020a63ffffffff8616028152600481018481528215156044830152606060248301908152909160640184818151815260200191508051906020019080838360005b8381101561078357808201518382015260200161076b565b50505050905090810190601f1680156107b05780820380516001836020036101000a031916815260200191505b50945050505050600060405180830381600087803b1580156107d157600080fd5b505af11580156107e5573d6000803e3d6000fd5b505050507f734b235ea1bf2a0059e310a2900fcf6b8408ea739f2f4ef2d4385dad011b834a858285876040518481528315156020820152608060408201818152906060830190830185818151815260200191508051906020019080838360005b8381101561085d578082015183820152602001610845565b50505050905090810190601f16801561088a5780820380516001836020036101000a031916815260200191505b50838103825284818151815260200191508051906020019080838360005b838110156108c05780820151838201526020016108a8565b50505050905090810190601f1680156108ed5780820380516001836020036101000a031916815260200191505b50965050505050505060405180910390a15050505050565b600854600160a060020a031681565b61091c610a40565b8061092a575061092a6109aa565b151561093557600080fd5b600954841461099d576009849055600a54831461095a57600a83905561095a83610f49565b61099960408051908101604052600681527f72616e646f6d00000000000000000000000000000000000000000000000000006020820152600954611107565b600d555b600b91909155600c555050565b600154600160a060020a0316331490565b6109c3610a40565b806109d157506109d16109aa565b15156109dc57600080fd5b60088054600160a060020a0319908116600160a060020a03938416179182905560078054929093169116179055565b610a13610a40565b1515610a1e57600080fd5b610a26610a31565b600160a060020a0316ff5b600054600160a060020a031690565b600054600160a060020a0316331490565b610a59610a40565b80610a675750610a676109aa565b1515610a7257600080fd5b600160a060020a0381161515610a8757600080fd5b600154600160a060020a0380831691167f1826d636e9a3774aec2775a096272892a3d9be1cdf17c925625adcdc61e59a9a60405160405180910390a360018054600160a060020a031916600160a060020a0392909216919091179055565b600854600090600160a060020a03163314610b60576040517f08c379a000000000000000000000000000000000000000000000000000000000815260206004820152600a60248201527f63616c6c65725f65727200000000000000000000000000000000000000000000604482015260640160405180910390fd5b600d5430311061063f57610b7b600c54600b54600954611354565b905090565b6000806000806000610b90610a40565b80610b9e5750610b9e6109aa565b1515610ba957600080fd5b5050600954600a54600b54600c54600d5493979296509094509250565b610bce610a40565b1515610bd957600080fd5b600160a060020a0381161515610bee57600080fd5b600054600160a060020a0380831691167f8be0079c531659141344cd1fd0a4f28419497f9722a3daafe3b4186f6b6457e060405160405180910390a360008054600160a060020a031916600160a060020a0392909216919091179055565b600d5481565b600354600090600160a060020a03161580610c7f5750600354610c7d90600160a060020a0316611837565b155b15610c9057610c8e600061183b565b505b600354600160a060020a03166338cc48316040518163ffffffff1660e060020a028152600401602060405180830381600087803b158015610cd057600080fd5b505af1158015610ce4573d6000803e3d6000fd5b505050506040513d6020811015610cfa57600080fd5b810190808051600254600160a060020a039081169116149250610dae91505057600354600160a060020a03166338cc48316040518163ffffffff1660e060020a028152600401602060405180830381600087803b158015610d5a57600080fd5b505af1158015610d6e573d6000803e3d6000fd5b505050506040513d6020811015610d8457600080fd5b81019080805160028054600160a060020a031916600160a060020a03929092169190911790555050505b600254600160a060020a031663c281d19e6040518163ffffffff1660e060020a02815260040160206040518083038186803b158015610dec57600080fd5b505afa158015610e00573d6000803e3d6000fd5b505050506040513d6020811015610e1657600080fd5b810190808051935050505090565b600081600081518110610e3357fe5b016020015160f860020a900460f860020a026000805160206134f383398151915219167f4c00000000000000000000000000000000000000000000000000000000000000141580610ed3575081600181518110610e8c57fe5b016020015160f860020a900460f860020a026000805160206134f383398151915219167f500000000000000000000000000000000000000000000000000000000000000014155b80610f075750600182600281518110610ee857fe5b016020015160f860020a900460f860020a0260f860020a900460ff1614155b15610f1457506001610f42565b6000610f29838686610f24611845565b6118e7565b9050801515610f3c576002915050610f42565b60009150505b9392505050565b600354600160a060020a03161580610f735750600354610f7190600160a060020a0316611837565b155b15610f8457610f82600061183b565b505b600354600160a060020a03166338cc48316040518163ffffffff1660e060020a028152600401602060405180830381600087803b158015610fc457600080fd5b505af1158015610fd8573d6000803e3d6000fd5b505050506040513d6020811015610fee57600080fd5b810190808051600254600160a060020a0390811691161492506110a291505057600354600160a060020a03166338cc48316040518163ffffffff1660e060020a028152600401602060405180830381600087803b15801561104e57600080fd5b505af1158015611062573d6000803e3d6000fd5b505050506040513d602081101561107857600080fd5b81019080805160028054600160a060020a031916600160a060020a03929092169190911790555050505b600254600160a060020a031663ca6ad1e48260405160e060020a63ffffffff84160281526004810191909152602401600060405180830381600087803b1580156110eb57600080fd5b505af11580156110ff573d6000803e3d6000fd5b505050505b50565b600354600090600160a060020a03161580611134575060035461113290600160a060020a0316611837565b155b1561114557611143600061183b565b505b600354600160a060020a03166338cc48316040518163ffffffff1660e060020a028152600401602060405180830381600087803b15801561118557600080fd5b505af1158015611199573d6000803e3d6000fd5b505050506040513d60208110156111af57600080fd5b810190808051600254600160a060020a03908116911614925061126391505057600354600160a060020a03166338cc48316040518163ffffffff1660e060020a028152600401602060405180830381600087803b15801561120f57600080fd5b505af1158015611223573d6000803e3d6000fd5b505050506040513d602081101561123957600080fd5b81019080805160028054600160a060020a031916600160a060020a03929092169190911790555050505b600254600160a060020a0316632ef3accc84846040518363ffffffff1660e060020a0281526004018080602001838152602001828103825284818151815260200191508051906020019080838360005b838110156112cb5780820151838201526020016112b3565b50505050905090810190601f1680156112f85780820380516001836020036101000a031916815260200191505b509350505050602060405180830381600087803b15801561131857600080fd5b505af115801561132c573d6000803e3d6000fd5b505050506040513d602081101561134257600080fd5b81019080805193505050505b92915050565b60008083118015611366575060208311155b151561137157600080fd5b600a8402935060606001604051818152601f19601f83011681016020016040529080156113a5576020820181803883390190505b5090508360f860020a02816000815181106113bc57fe5b9060200101906000805160206134f38339815191521916908160001a90535060606020604051818152601f19601f8301168101602001604052908015611409576020820181803883390190505b50905060606020604051818152601f19601f830116810160200160405290801561143a576020820181803883390190505b5090506000611447611f23565b90506020835242411860014303401860208401526020825280602083015260606020604051818152601f19601f8301168101602001604052908015611493576020820181803883390190505b50905088602082015260606008604051818152601f19601f83011681016020016040529080156114ca576020820181803883390190505b5090506114dd82601860088460006120bd565b506114e661341b565b608060405190810160405280878152602001888152602001868152602001848152509050600061154a60408051908101604052600681527f72616e646f6d00000000000000000000000000000000000000000000000000006020820152838c612107565b905060606008604051818152601f19601f830116810160200160405290801561157a576020820181803883390190505b509050602084015160f860020a810460278301537e01000000000000000000000000000000000000000000000000000000000000810460268301537d0100000000000000000000000000000000000000000000000000000000008104602583015360e060020a810460248301537b01000000000000000000000000000000000000000000000000000000810460238301537a01000000000000000000000000000000000000000000000000000081046022830153790100000000000000000000000000000000000000000000000000810460218301537801000000000000000000000000000000000000000000000000810460208301535061182782826020860151600287516040518082805190602001908083835b602083106116af5780518252601f199092019160209182019101611690565b6001836020036101000a038019825116818451168082178552505050505050905001915050602060405180830381855afa1580156116f1573d6000803e3d6000fd5b5050506040513d602081101561170657600080fd5b8101908080519250505060408801516040516020018085805190602001908083835b602083106117475780518252601f199092019160209182019101611728565b6001836020036101000a038019825116818451161790925250505091909101905084805190602001908083835b602083106117935780518252601f199092019160209182019101611774565b6001836020036101000a038019825116818451161790925250505091909101848152602001905082805190602001908083835b602083106117e55780518252601f1990920191602091820191016117c6565b6001836020036101000a038019825116818451161790925250505091909101955060409450505050505160208183030381529060405280519060200120612323565b509b9a5050505050505050505050565b3b90565b600061134e612338565b606060048054600181600116156101000203166002900480601f0160208091040260200160405190810160405280929190818152602001828054600181600116156101000203166002900480156118dd5780601f106118b2576101008083540402835291602001916118dd565b820191906000526020600020905b8154815290600101906020018083116118c057829003601f168201915b5050505050905090565b600080856045815181106118f757fe5b016020015160f860020a900460f860020a0260f860020a900460ff16600201604401602001905060606020604051818152601f19601f830116810160200160405290801561194c576020820181803883390190505b50905061195e878360208460006120bd565b50600284876040516020018083805190602001908083835b602083106119955780518252601f199092019160209182019101611976565b6001836020036101000a038019825116818451161790925250505091909101928352505060200190506040516020818303038152906040526040518082805190602001908083835b602083106119fc5780518252601f1990920191602091820191016119dd565b6001836020036101000a038019825116818451168082178552505050505050905001915050602060405180830381855afa158015611a3e573d6000803e3d6000fd5b5050506040513d6020811015611a5357600080fd5b81019080805192506040915050516020018082815260200191505060405160208183030381529060405280519060200120818051906020012014611a9c57600092505050611f1b565b606087604a840181518110611aad57fe5b016020015160f860020a900460f860020a0260f860020a900460ff16600201604051818152601f19601f8301168101602001604052908015611af6576020820181803883390190505b509050611b0b888460490183518460006120bd565b50611bd56002826040518082805190602001908083835b60208310611b415780518252601f199092019160209182019101611b22565b6001836020036101000a038019825116818451168082178552505050505050905001915050602060405180830381855afa158015611b83573d6000803e3d6000fd5b5050506040513d6020811015611b9857600080fd5b81019080805192508991508b90506028870181518110611bb457fe5b016020015160f860020a900460f860020a0260f860020a900460ff1661265c565b1515611be75760009350505050611f1b565b60606029604051818152601f19601f8301168101602001604052908015611c15576020820181803883390190505b509050611c2a898560200160298460006120bd565b50606060408051818152601f19601f8301168101602001604052908015611c58576020820181803883390190505b5090506000835186602001602901016041019050611c7e8b6040830360408560006120bd565b5060006002836040518082805190602001908083835b60208310611cb35780518252601f199092019160209182019101611c94565b6001836020036101000a038019825116818451168082178552505050505050905001915050602060405180830381855afa158015611cf5573d6000803e3d6000fd5b5050506040513d6020811015611d0a57600080fd5b810190808051935086925083915060409050516020018083805190602001908083835b60208310611d4c5780518252601f199092019160209182019101611d2d565b6001836020036101000a038019825116818451161790925250505091909101928352505060200190506040516020818303038152906040528051906020012060008c8152600560205260409020541415611db75760008b815260056020526040902060009055611dc7565b6000975050505050505050611f1b565b60606049604051818152601f19601f8301168101602001604052908015611df5576020820181803883390190505b509050611e078d8960498460006120bd565b50611ea76002826040518082805190602001908083835b60208310611e3d5780518252601f199092019160209182019101611e1e565b6001836020036101000a038019825116818451168082178552505050505050905001915050602060405180830381855afa158015611e7f573d6000803e3d6000fd5b5050506040513d6020811015611e9457600080fd5b81019080805192508991508790506126ea565b1515611ebe57600098505050505050505050611f1b565b60008281526006602052604090205460ff161515611efe57611ee08d8461286c565b6000838152600660205260409020805460ff19169115159190911790555b60008281526006602052604090205460ff16985050505050505050505b949350505050565b600354600090600160a060020a03161580611f505750600354611f4e90600160a060020a0316611837565b155b15611f6157611f5f600061183b565b505b600354600160a060020a03166338cc48316040518163ffffffff1660e060020a028152600401602060405180830381600087803b158015611fa157600080fd5b505af1158015611fb5573d6000803e3d6000fd5b505050506040513d6020811015611fcb57600080fd5b810190808051600254600160a060020a03908116911614925061207f91505057600354600160a060020a03166338cc48316040518163ffffffff1660e060020a028152600401602060405180830381600087803b15801561202b57600080fd5b505af115801561203f573d6000803e3d6000fd5b505050506040513d602081101561205557600080fd5b81019080805160028054600160a060020a031916600160a060020a03929092169190911790555050505b600254600160a060020a031663abaa5f3e6040518163ffffffff1660e060020a02815260040160206040518083038186803b158015610dec57600080fd5b606083820180845110156120d057600080fd5b60208087019084015b8688602001018210156120fa578189015186820152602091820191016120d9565b5093979650505050505050565b600354600090600160a060020a03161580612134575060035461213290600160a060020a0316611837565b155b1561214557612143600061183b565b505b600354600160a060020a03166338cc48316040518163ffffffff1660e060020a028152600401602060405180830381600087803b15801561218557600080fd5b505af1158015612199573d6000803e3d6000fd5b505050506040513d60208110156121af57600080fd5b810190808051600254600160a060020a03908116911614925061226391505057600354600160a060020a03166338cc48316040518163ffffffff1660e060020a028152600401602060405180830381600087803b15801561220f57600080fd5b505af1158015612223573d6000803e3d6000fd5b505050506040513d602081101561223957600080fd5b81019080805160028054600160a060020a031916600160a060020a03929092169190911790555050505b6060600460405190808252806020026020018201604052801561229a57816020015b60608152602001906001900390816122855790505b5090508351816000815181106122ac57fe5b602090810290910101528360016020020151816001815181106122cb57fe5b60209081029190910101526040840151816002815181106122e857fe5b602090810291909101015260608401518160038151811061230557fe5b6020908102909101015261231a858285612c9c565b95945050505050565b60008281526005602052819060409020555050565b600080612358731d3b2638a7cc9f2cb3d298a3da7a90b67e5506ed611837565b11156123c85760038054600160a060020a031916731d3b2638a7cc9f2cb3d298a3da7a90b67e5506ed1790556123c060408051908101604052600b81527f6574685f6d61696e6e65740000000000000000000000000000000000000000006020820152613077565b50600161063f565b60006123e773c03a2615d5efaf5f49f60b7bb6583eaec212fdf1611837565b111561244f5760038054600160a060020a03191673c03a2615d5efaf5f49f60b7bb6583eaec212fdf11790556123c060408051908101604052600c81527f6574685f726f707374656e3300000000000000000000000000000000000000006020820152613077565b600061246e73b7a07bcf2ba2f2703b24c0691b5278999c59ac7e611837565b11156124d65760038054600160a060020a03191673b7a07bcf2ba2f2703b24c0691b5278999c59ac7e1790556123c060408051908101604052600981527f6574685f6b6f76616e00000000000000000000000000000000000000000000006020820152613077565b60006124f573146500cfd35b22e4a392fe0adc06de1a1368ed48611837565b111561255d5760038054600160a060020a03191673146500cfd35b22e4a392fe0adc06de1a1368ed481790556123c060408051908101604052600b81527f6574685f72696e6b6562790000000000000000000000000000000000000000006020820152613077565b600061257c736f485c8bf6fc43ea212e93bbf8ce046c7f1cb475611837565b11156125b0575060038054600160a060020a031916736f485c8bf6fc43ea212e93bbf8ce046c7f1cb475179055600161063f565b60006125cf7320e12a1f859b3feae5fb2a0a32c18f5a65555bbf611837565b1115612603575060038054600160a060020a0319167320e12a1f859b3feae5fb2a0a32c18f5a65555bbf179055600161063f565b60006126227351efaf4c8b3c9afbd5ab9f4bbc82784ab6ef8faa611837565b1115612656575060038054600160a060020a0319167351efaf4c8b3c9afbd5ab9f4bbc82784ab6ef8faa179055600161063f565b50600090565b600060018284511461266d57600080fd5b60005b838110156126e15784818151811061268457fe5b016020015160f860020a900460f860020a026000805160206134f3833981519152191686826020811015156126b557fe5b1a60f860020a026000805160206134f383398151915219161415156126d957600091505b600101612670565b50949350505050565b600080600080600060606020604051818152601f19601f8301168101602001604052908015612720576020820181803883390190505b509050600060208960038151811061273457fe5b016020015160f860020a900460f860020a0260f860020a900460ff16036004019050612765898260208560006120bd565b915060606020604051818152601f19601f8301168101602001604052908015612795576020820181803883390190505b5090506022820191506127dc8a60208c60018603815181106127b357fe5b016020015160f860020a900460f860020a0260f860020a900460ff1603840160208460006120bd565b905060208301519450602081015193506127f98b601b878761308a565b9097509550600160a060020a0386168980519060200120600160a060020a0316141561282f576001975050505050505050610f42565b61283c8b601c878761308a565b9097509550600160a060020a0386168980519060200120600160a060020a0316149750610f429650505050505050565b600080606084846001018151811061288057fe5b016020015160f860020a900460f860020a0260f860020a900460ff16600201604051818152601f19601f83011681016020016040529080156128c9576020820181803883390190505b5090506128db858583518460006120bd565b50606060408051818152601f19601f8301168101602001604052908015612909576020820181803883390190505b50905061291c86600460408460006120bd565b5060606062604051818152601f19601f830116810160200160405290801561294b576020820181803883390190505b50905060f860020a8160008151811061296057fe5b9060200101906000805160206134f38339815191521916908160001a905350612991876041880360418460016120bd565b5060606040805190810160405280602081526020017ffd94fa71bc0ba10d39d464d0d8f465efeef0a2764e3887fcc9df41ded20f505c81525090506129dc81600060208560426120bd565b50612a7c6002836040518082805190602001908083835b60208310612a125780518252601f1990920191602091820191016129f3565b6001836020036101000a038019825116818451168082178552505050505050905001915050602060405180830381855afa158015612a54573d6000803e3d6000fd5b5050506040513d6020811015612a6957600080fd5b81019080805192508791508690506126ea565b9450841515612a935760009550505050505061134e565b60608060405190810160405280604081526020017f7fb956469c5c9b89840d55b43537e66a98dd4811ea0a27224272c2e5622911e881526020017f537a2f8e86a46baec82864e98dd01e9ccc2f8bc5dfc9cbe5a91a290498dd96e4815250905060606042604051818152601f19601f8301168101602001604052908015612b21576020820181803883390190505b5090507ffe0000000000000000000000000000000000000000000000000000000000000081600081518110612b5257fe5b9060200101906000805160206134f38339815191521916908160001a905350612b818a600360418460016120bd565b5060608a604581518110612b9157fe5b016020015160f860020a900460f860020a0260f860020a900460ff16600201604051818152601f19601f8301168101602001604052908015612bda576020820181803883390190505b509050612bed8b604483518460006120bd565b50612c8d6002836040518082805190602001908083835b60208310612c235780518252601f199092019160209182019101612c04565b6001836020036101000a038019825116818451168082178552505050505050905001915050602060405180830381855afa158015612c65573d6000803e3d6000fd5b5050506040513d6020811015612c7a57600080fd5b81019080805192508491508690506126ea565b9b9a5050505050505050505050565b600354600090600160a060020a03161580612cc95750600354612cc790600160a060020a0316611837565b155b15612cda57612cd8600061183b565b505b600354600160a060020a03166338cc48316040518163ffffffff1660e060020a028152600401602060405180830381600087803b158015612d1a57600080fd5b505af1158015612d2e573d6000803e3d6000fd5b505050506040513d6020811015612d4457600080fd5b810190808051600254600160a060020a039081169116149250612df891505057600354600160a060020a03166338cc48316040518163ffffffff1660e060020a028152600401602060405180830381600087803b158015612da457600080fd5b505af1158015612db8573d6000803e3d6000fd5b505050506040513d6020811015612dce57600080fd5b81019080805160028054600160a060020a031916600160a060020a03929092169190911790555050505b600254600090600160a060020a0316632ef3accc86856040518363ffffffff1660e060020a0281526004018080602001838152602001828103825284818151815260200191508051906020019080838360005b83811015612e63578082015183820152602001612e4b565b50505050905090810190601f168015612e905780820380516001836020036101000a031916815260200191505b509350505050602060405180830381600087803b158015612eb057600080fd5b505af1158015612ec4573d6000803e3d6000fd5b505050506040513d6020811015612eda57600080fd5b8101908080519350505050670de0b6b3a76400003a840201811115612f03575060009050610f42565b6060612f0e856130ca565b600254909150600160a060020a031663c55c1cb68360008985896040518663ffffffff1660e060020a028152600401808581526020018060200180602001848152602001838103835286818151815260200191508051906020019080838360005b83811015612f87578082015183820152602001612f6f565b50505050905090810190601f168015612fb45780820380516001836020036101000a031916815260200191505b50838103825285818151815260200191508051906020019080838360005b83811015612fea578082015183820152602001612fd2565b50505050905090810190601f1680156130175780820380516001836020036101000a031916815260200191505b5096505050505050506020604051808303818588803b15801561303957600080fd5b505af115801561304d573d6000803e3d6000fd5b50505050506040513d602081101561306457600080fd5b8101908080519998505050505050505050565b6004818051610679929160200190613442565b60008060008060405188815287602082015286604082015285606082015260208160808360006001610bb8f1925080519299929850919650505050505050565b60606130d461313e565b6130dc6134c0565b6130e88161040061314a565b6130f181613178565b60005b835181101561312b5761312384828151811061310c57fe5b90602001906020020151839063ffffffff61318316565b6001016130f4565b50613135816131a0565b80519392505050565b60405180590338823950565b80602081061561315d5760208106602003015b60208301819052604051928390526000835290910160405250565b6111048160046131a7565b61319082600283516131c0565b61062d828263ffffffff6132c416565b6111048160075b61067982601f602060ff8516021763ffffffff61335d16565b601781116131e1576131dc8360ff84811660200216831761335d565b61062d565b60ff811161321a57613202836018602060ff8616021763ffffffff61335d16565b6132148382600163ffffffff61339616565b5061062d565b61ffff811161324e5761323c836019602060ff8616021763ffffffff61335d16565b6132148382600263ffffffff61339616565b63ffffffff81116132845761327283601a602060ff8616021763ffffffff61335d16565b6132148382600463ffffffff61339616565b67ffffffffffffffff811161062d576132ac83601b602060ff8616021763ffffffff61335d16565b6132be8382600863ffffffff61339616565b50505050565b6132cc6134c0565b826020015183515183510111156132f8576132f8836132f0856020015185516133ea565b600202613401565b60008060008451905085518051602081830101945086510190526020850191505b6020811061333957815183526020928301929190910190601f1901613319565b60001960208290036101000a01801983511681855116179093525093949350505050565b8160200151825151600101111561337f5761337f828360200151600202613401565b815180516020818301018381535060010190525050565b61339e6134c0565b8360200151845151830111156133c0576133c0846132f08660200151856133ea565b60001961010083900a01845180518481830101868419825116179052909301909252509192915050565b6000818311156133fb57508161134e565b50919050565b606082519050613411838361314a565b6132be83826132c4565b60806040519081016040526004815b606081526020019060019003908161342a5790505090565b828054600181600116156101000203166002900490600052602060002090601f016020900481019282601f1061348357805160ff19168380011785556134b0565b828001600101855582156134b0579182015b828111156134b0578251825591602001919060010190613495565b506134bc9291506134d8565b5090565b60408051908101604052606081526000602082015290565b61063f91905b808211156134bc57600081556001016134de56fe00ffffffffffffffffffffffffffffffffffffffffffffffffffffffffffffffa165627a7a72305820fc863b008a1d17bc928840a51d88edf88c1b0dd74eaacfd96b6822849bdd733f0029",
  "source": "pragma solidity ^ 0.5.0;\r\nimport \"./oraclizeAPI.sol\";\r\n\r\n/**\r\n * @title Ownable (OpenZeppelin with additions)\r\n * @dev The Ownable contract has an owner address, and provides basic authorization control\r\n * functions, this simplifies the implementation of \"user permissions\".\r\n */\r\ncontract Ownable {\r\n    address payable private _owner;\r\n    address payable private _timekeeper;\r\n\r\n    event OwnershipTransferred(address payable indexed previousOwner, address payable indexed newOwner);\r\n    event TimekeepingTransferred(address payable indexed previousTimekeeper, address payable indexed newTimekeeper);\r\n\r\n    /**\r\n     * @dev The Ownable constructor sets the original `owner` of the contract to the sender\r\n     * account.\r\n     */\r\n    constructor() internal {\r\n        _owner = msg.sender;\r\n        emit OwnershipTransferred(address(0), _owner);\r\n    }\r\n\r\n    /**\r\n     * @return the address of the owner.\r\n     */\r\n    function owner() public view returns(address payable) {\r\n        return _owner;\r\n    }\r\n\r\n    /**\r\n     * @return the address of the timekeeper.\r\n     */\r\n    function timekeeper() public view returns(address payable) {\r\n        return _timekeeper;\r\n    }\r\n\r\n    /**\r\n     * @dev Throws if called by any account other than the owner.\r\n     */\r\n    modifier onlyOwner() {\r\n        require(isOwner());\r\n        _;\r\n    }\r\n\r\n    /**\r\n     * @dev Throws if called by any account other than the owners (owner and timekeeper).\r\n     */\r\n    modifier onlyOwners() {\r\n        require(isOwner() || isTimekeeper());\r\n        _;\r\n    }\r\n\r\n    /**\r\n     * @return true if `msg.sender` is the owner of the contract.\r\n     */\r\n    function isOwner() public view returns(bool) {\r\n        return msg.sender == _owner;\r\n    }\r\n\r\n    /**\r\n     * @return true if `msg.sender` is the timekeeper of the contract.\r\n     */\r\n    function isTimekeeper() public view returns(bool) {\r\n        return msg.sender == _timekeeper;\r\n    }\r\n\r\n    /**\r\n     * @dev Allows the current owner to transfer control of the contract to a newOwner.\r\n     * @param newOwner The address to transfer ownership to.\r\n     */\r\n    function transferOwnership(address payable newOwner) public onlyOwner {\r\n        require(newOwner != address(0));\r\n        emit OwnershipTransferred(_owner, newOwner);\r\n        _owner = newOwner;\r\n    }\r\n\r\n    /**\r\n     * @dev Allows the current owners to transfer control of timekeeping to a newOwner.\r\n     * @param newTimeKeeper The address to transfer ownership to.\r\n     */\r\n    function transferTimekeeping(address payable newTimeKeeper) public onlyOwners {\r\n        require(newTimeKeeper != address(0));\r\n        emit TimekeepingTransferred(_timekeeper, newTimeKeeper);\r\n        _timekeeper = newTimeKeeper;\r\n    }\r\n\r\n}\r\n\r\n/**\r\n * @title MultiprizerAbstract\r\n * @dev This contract denotes the core Multiprizer contract.\r\n */\r\ncontract MultiprizerAbstract {\r\n    function calculateWinnerByOracle(\r\n        bytes32 _oraclizeID,\r\n        bytes calldata _result,\r\n        //bytes calldata _oraclizeProof,\r\n        bool _isProofValid) external;\r\n}\r\n\r\n\r\n/**\r\n * @title MultiprizerOraclize\r\n * @dev The Multiprizer contract is the core game.\r\n */\r\ncontract MultiprizerOraclize is Ownable, usingOraclize {\r\n\r\n    /** \r\n    *  Contract Variable\r\n    *  @dev DirectPlay enables a player to place a single token for any of the strategy games   \r\n    *  execute manual withdraw of your prizes won by sending directPlayWithdraw value of ethers. \r\n      */\r\n    MultiprizerAbstract private multiprizer;\r\n    address payable public multiprizerAddress;\r\n\r\n    /** \r\n    *  Oraclize Props Variables \r\n    *  @dev DirectPlay enables a player to place a single token for any of the strategy games   \r\n    *  execute manual withdraw of your prizes won by sending directPlayWithdraw value of ethers. \r\n      */\r\n    uint256 private gasLimitOraclize;\r\n    uint256 private gasPriceOraclize;\r\n    uint256 private numBytesOraclize;\r\n    uint256 private delayOraclize;\r\n    uint256 public priceOraclize;\r\n    string constant private DATASOURCE = \"random\";\r\n\r\n    /** \r\n    *  Event Logs \r\n    *  @dev DirectPlay enables a player to place a single token for any of the strategy games   \r\n    *  execute manual withdraw of your prizes won by sending directPlayWithdraw value of ethers. \r\n      */\r\n    event OraclizeValues(bytes32 _oraclizeID, bool _isProofValid, bytes _oraclizeProof, bytes _result);\r\n\r\n    /** \r\n    *  Constructor call \r\n    *  @dev DirectPlay enables a player to place a single token for any of the strategy games   \r\n    *  execute manual withdraw of your prizes won by sending directPlayWithdraw value of ethers. \r\n      */\r\n    constructor(address payable _contractAddress) public {\r\n        multiprizerAddress = _contractAddress;\r\n        multiprizer = MultiprizerAbstract(multiprizerAddress);\r\n        // set proof type as 'ledger'. this needn't be changed further\r\n        oraclize_setProof(proofType_Ledger);\r\n    }\r\n\r\n    function setContractAddrByAdmin(address payable _contractAddress) external\r\n    onlyOwners {\r\n        multiprizerAddress = _contractAddress;\r\n        multiprizer = MultiprizerAbstract(multiprizerAddress);\r\n    }\r\n\r\n    function updateOraclizePropsByAdmin(uint256 _gasLimitOraclize, uint256 _gasPriceOraclize,\r\n    uint256 _numBytesOraclize, uint256 _delayOraclize) external onlyOwners {\r\n\r\n        if (gasLimitOraclize != _gasLimitOraclize) {\r\n            gasLimitOraclize = _gasLimitOraclize;\r\n            if (gasPriceOraclize != _gasPriceOraclize) {\r\n                gasPriceOraclize = _gasPriceOraclize;\r\n                oraclize_setCustomGasPrice(_gasPriceOraclize);\r\n            }\r\n            priceOraclize = oraclize_getPrice(DATASOURCE, gasLimitOraclize);\r\n        }\r\n        numBytesOraclize = _numBytesOraclize;\r\n        delayOraclize = _delayOraclize;\r\n        // dataSource is constant to \"random\"\r\n        // proof type is fixed to 'ledger' proof\r\n    }\r\n\r\n    function getOraclizePropsByAdmin() external view\r\n    onlyOwners returns(\r\n        uint256 _gasLimitOraclize,\r\n        uint256 _gasPriceOraclize,\r\n        uint256 _numBytesOraclize,\r\n        uint256 _delayOraclize,\r\n        uint256 _priceOraclize\r\n    ) {\r\n        _gasLimitOraclize = gasLimitOraclize;\r\n        _gasPriceOraclize = gasPriceOraclize;\r\n        _numBytesOraclize = numBytesOraclize;\r\n        _delayOraclize = delayOraclize;\r\n        _priceOraclize = priceOraclize;\r\n    }\r\n\r\n    function newRandomDSQuery() external payable returns(bytes32 _queryId) {\r\n        require(msg.sender == multiprizerAddress, \"caller_err\");\r\n        //check if contract has enough funds to invoke oraclize\r\n        if (priceOraclize <= address(this).balance) {\r\n            _queryId = oraclize_newRandomDSQuery(delayOraclize, numBytesOraclize, gasLimitOraclize);\r\n        }\r\n    }\r\n\r\n    function __callback(bytes32 _oraclizeID, string memory _result, bytes memory _oraclizeProof) public {\r\n        // check if the callback was invoked by oraclize\r\n        require(msg.sender == oraclize_cbAddress(), \"caller_err\");\r\n        uint8 _proofCode = oraclize_randomDS_proofVerify__returnCode(_oraclizeID, _result, _oraclizeProof);\r\n        bool _isProofValid = (_proofCode == 0);\r\n        multiprizer.calculateWinnerByOracle(_oraclizeID, bytes(_result), _isProofValid);\r\n        emit OraclizeValues(_oraclizeID, _isProofValid, _oraclizeProof, bytes(_result));\r\n    }\r\n\r\n    // transfer amount to address (admin)\r\n    function safeSend(address payable _toAddress, uint256 _amount) external onlyOwners\r\n    {\r\n        require(_amount > 0, \"amt_zero\");\r\n        require(address(this).balance >= _amount,\r\n            \"no_funds\");\r\n\r\n        _toAddress.transfer(_amount);\r\n    }\r\n\r\n    // fallback function (payable)\r\n    function () external payable {\r\n\r\n    }\r\n\r\n    // self destruct contract after reverting all pending games of players and sending back funds\r\n    function ownerKill() external\r\n    onlyOwner {\r\n        selfdestruct(owner());\r\n    }\r\n\r\n}\r\n/**\r\n * @dev End of MultiprizerOraclize\r\n */\r\n\r\n\r\n\r\n\r\n\r\n\r\n\r\n\r\n\r\n\r\n",
  "sourcePath": "D:/Code/DApps/Multiprizer/contracts/MultiprizerOraclize.sol",
  "compiler": {
    "name": "solc",
    "version": "0.5.0+commit.1d4f565a.Emscripten.clang"
  },
  "schemaVersion": "3.0.1",
  "updatedAt": "2019-05-10T09:23:56.497Z",
  "devdoc": {
    "details": "The Multiprizer contract is the core game.\r",
    "methods": {
      "constructor": {
        "details": "DirectPlay enables a player to place a single token for any of the strategy games   \r execute manual withdraw of your prizes won by sending directPlayWithdraw value of ethers. \r"
      },
      "isOwner()": {
        "return": "true if `msg.sender` is the owner of the contract.\r"
      },
      "isTimekeeper()": {
        "return": "true if `msg.sender` is the timekeeper of the contract.\r"
      },
      "owner()": {
        "return": "the address of the owner.\r"
      },
      "timekeeper()": {
        "return": "the address of the timekeeper.\r"
      },
      "transferOwnership(address)": {
        "details": "Allows the current owner to transfer control of the contract to a newOwner.\r",
        "params": {
          "newOwner": "The address to transfer ownership to.\r"
        }
      },
      "transferTimekeeping(address)": {
        "details": "Allows the current owners to transfer control of timekeeping to a newOwner.\r",
        "params": {
          "newTimeKeeper": "The address to transfer ownership to.\r"
        }
      }
    },
    "title": "MultiprizerOraclize\r"
  },
  "userdoc": {
    "methods": {
      "constructor": "Constructor call \r"
    }
  }
}